:020000040800F2
:10000000F80600204D0200081F230008AD18000864
:100010001D230008A11500080927000800000000A2
:100020000000000000000000000000005D24000847
:100030007D1600080000000021230008B5250008F7
:1000400071020008710200087102000871020008C4
:1000500071020008710200087102000871020008B4
:1000600071020008710200087102000871020008A4
:100070007102000871020008710200087102000894
:100080007102000871020008710200087102000884
:100090007102000871020008710200087102000874
:1000A0007102000871020008710200087102000864
:1000B0007102000871020008710200087102000854
:1000C0007102000871020008710200087102000844
:1000D0007102000871020008710200087102000834
:1000E0007102000871020008710200087102000824
:1000F0007102000871020008710200087102000814
:100100007102000871020008710200087102000803
:1001100071020008710200087102000871020008F3
:1001200071020008710200087102000871020008E3
:1001300071020008710200087102000871020008D3
:1001400071020008710200087102000871020008C3
:1001500071020008710200087102000871020008B3
:1001600071020008710200087102000871020008A3
:100170007102000871020008710200087102000893
:10018000710200087102000800F002F800F04FF858
:100190000AA090E8000C82448344AAF10107DA45E2
:1001A00001D100F044F8AFF2090EBAE80F0013F0E5
:1001B000010F18BFFB1A43F0010318472034000059
:1001C00040340000103A24BF78C878C1FAD85207EA
:1001D00024BF30C830C144BF04680C6070470000C1
:1001E0000023002400250026103A28BF78C1FBD840
:1001F000520728BF30C148BF0B607047662902F024
:100200004584642900F09A80782900F0D38000208A
:1002100070471FB502F035FC00F088FC0400002098
:10022000002102F0A1FBE0601FBD10B510BD00F081
:1002300081FD1146FFF7EDFF02F0ACFA00F09FFDE3
:1002400003B4FFF7F2FF03BC02F07EFA0C4801682A
:1002500041F4700101600B4880470B480047FEE7FE
:10026000FEE7FEE7FEE7FEE7FEE7FEE7FEE7FEE766
:10027000FEE7000005480649064A074B70470000A4
:1002800088ED00E0D125000889010008F800002071
:10029000F8060020F8020020F80200207047000055
:1002A0000FB4044910B503AA029800F02DFC10BC4D
:1002B0005DF814FB500000200FB41CB50C0007AA19
:1002C000009001D02044401E074B7B4469460190BA
:1002D000069800F0F8FB002C03D06946002000F0DF
:1002E00005FC1CBC5DF814FB2908000070B5044631
:1002F00085690068C10601D5302600E02026C007C8
:1003000007D070BDD4E9012130469047206A401CD7
:1003100020626D1EF6D570BD70B504468569007803
:10032000C00707D170BDD4E9012120209047206A81
:10033000401C20626D1EF6D570BD00002DE9F04115
:100340000646002410687529314616A510D0AFF373
:100350000080002802DA404213A507E031688A07CE
:1003600001D512A502E0490704D511A5012401E039
:10037000AFF3008000210A2206F1240709E0B0FB58
:10038000F2FCB0FBF2F302FB1C003030785418464C
:10039000491C0028F3D123462A463046BDE8F041E7
:1003A00000F023B9000000002D0000002B00000029
:1003B0002000000070B504460D4621461068AFF3DA
:1003C00000802188090502D50F4A7A4402E00E4ACE
:1003D0007A440E32002104F1240305E000F00F06F8
:1003E0000009965D5E54491C0028F7D1207800234F
:1003F000000704D5702D02D009B102231132204626
:10040000BDE8704000F0F1B83E3100002DE9F05F2A
:10041000894604464FF0000ADFF874B1FB44C0F887
:1004200020A02046E1688847002874D0252806D0FF
:10043000D4E901219047206A401C2062F1E70026A0
:100440005F462046E16888472028054607DB312DB6
:1004500005D2781910F8200C08B10643F1E7B0076F
:1004600001D526F00406C4F81CA00027C4F818A083
:100470002A2D09D0284602F060F938B304EB87082A
:10048000303DC8F8185019E059F8041B204604EB19
:1004900087029161E1688847012F054618D1E0691C
:1004A000002820DA26F020061DE0D8F8180000EB1E
:1004B000800005EB40003038C8F818002046E1689D
:1004C0008847054602F039F90028EED1012F0AD0FD
:1004D0002E2D08D12046E16888477F1C0546022F53
:1004E00046F02006C4DBA069002803DA404246F04B
:1004F0000106A061F00701D026F010066C2D0BD08C
:10050000682D09D04C2D39D06A2D35D0742D35D0B9
:100510007A2D33D016E038E0E1682F462046884730
:10052000B842054609D16C2F26D04FF48060E168AF
:10053000064320468847054604E06C2F1AD04FF446
:10054000807006430DB3A5F14100192802D820356B
:1005500046F400664A462946204626604E46FFF786
:100560004DFE80B101280BD0F61D26F0070000F1EA
:10057000080956E74020E4E78020D8E70020D6E7C6
:1005800006F104094DE7284652E7206ABDE8F09FCE
:10059000143100004FF0000200B513469446964611
:1005A000203922BFA0E80C50A0E80C50B1F1200186
:1005B000BFF4F7AF090728BFA0E80C5048BF0CC034
:1005C0005DF804EB890028BF40F8042B08BF704792
:1005D00048BF20F8022B11F0804F18BF00F8012B04
:1005E000704770477047704770472DE9F0470D46D8
:1005F00099469246044600F124080168880604D50D
:10060000E06921F01001216000E00120A84201DD35
:10061000471B00E00027A1697A1902EB0900081ABC
:10062000A0612078C00602D42046FFF75FFE0026B6
:1006300008E0D4E901211AF806009047206A401C1E
:10064000761C20624E45F4DB2078C0060AD5204691
:10065000FFF74CFE06E0D4E9012130209047206AE4
:10066000401C2062381EA7F10107F4DC07E0D4E942
:10067000012118F805009047206A401C2062281EBE
:10068000A5F10105F3DC2046FFF746FE20780006C1
:1006900002D50220BDE8F0870120FBE770472DE975
:1006A000FF4F0C461E464FF0FF378BB0D2E90001DA
:1006B000DDF860800A908A46C1F30A5505B93D46C7
:1006C000002108464FF00000BAF1000F00F440008E
:1006D00005DA00EB80004FF4400101EA50004FEAD8
:1006E0009059B9F1010F00DDB9460A9850EA4A0065
:1006F0000ED044F61050A5F2FF3545432F14B8F143
:10070000000F1ED07542291E1EDDC9F100021CE03B
:10071000B8F1010F4FF0000001D0302103E0F243A7
:1007200005E02154401CB042FBDB30460022002192
:1007300021540B99C1F80880C1E900200FB0BDE831
:10074000F08FBD1B6D1CDEE74A4600DA694206A841
:1007500000F076FA06AB93E8070003AB83E80700E6
:1007600050460A9900F054FB8DE80700A0F50050B0
:100770001F3800900398002D0ADD42F21F014A46FF
:100780000844002303A90390684600F0BDFD09E07A
:10079000A0F500504A461F38002303A9039068467D
:1007A00000F0C7FD8DE807000004000C03D04FF0F7
:1007B000FF30410800E01046B8F1000F03D00022DE
:1007C000009215461EE0751E05D400F0B3F93032D4
:1007D00062556D1EF9D5B3460122084302D00022AE
:1007E0007F1C04E02078302801D100227F1E002ADF
:1007F000099784D01DE0112D07DA00F09BF9303203
:1008000062556D1C50EA0102F5D1084302D00098F0
:10081000C8B10EE00021681E05E0235C625C6354F1
:100820002254401E491C8142F7DBAB46A81B401EE8
:100830000990002004F80B000B98099AC0F8088072
:10084000C0E9002B7AE711264FF0000857E72DE9A1
:10085000F04F88460446D21D22F0070191B0D1E93D
:100860000001CDE90A0101F050FF02460B98C00FCC
:1008700001D02D2007E02068810701D52B2002E060
:10088000202101EAC000032A099001D0072A05DBD4
:1008900003464146204600F093F90BE1207880069C
:1008A00001D5E06900E00620B8F1650F814606D069
:1008B000B8F1660F18D0B8F1670F70D131E00020A1
:1008C000B9F1110F009001DB112301E009F10103DF
:1008D0000AAA01A90CA8FFF7E2FEDDE90C700026C8
:1008E00009F10105834647E001204B4600904FF097
:1008F00000470AAA01A90CA8FFF7D1FEDDE90DB057
:100900000C995D46002610B909F101000D18B9EBEC
:10091000050003D4C0F1FF3609F10105A5EB09007C
:100920002BE0B9F1010F01DA4FF001090020B9F114
:10093000110F0090484601DD112300E003460AAA8A
:1009400001A90CA8FFF7ABFEDDE90C704D460026AF
:100950008346207800070AD4AB4500DA5D4601A83B
:10096000012D04DD411911F8011C302907D04F4534
:1009700002DA17F1040F04DA012082460FE06D1E3F
:10098000EEE7002F02DCED1B3E4403E0781CA8429A
:1009900000DD7D1CB81B00F1010A4FF000472078F4
:1009A000000703D4AA4501DB4FF0FF3A0021B7F15D
:1009B000004F0DF143088DF8431024D002202B2363
:1009C000002F01DA7F422D230A21021EA0F101002F
:1009D00000DC5FB197FBF1FC97FBF1F201FB1C7CA3
:1009E00017460CF1300C08F801CDEEE7A8F1010034
:1009F00003702188090501D5452100E06521A0F19A
:100A0000010800F8011C09980FA9A1EB0807FF1DB8
:100A100000B10120411901EBEA70A1693844081ABC
:100A2000401EA0612078C00602D42046FFF75EFC7D
:100A3000099828B1D4E901219047206A401C20621E
:100A40002078C00622D52046FFF750FC1EE0002E7D
:100A500004DBB34502DD01A8805D00E03020D4E96D
:100A600001219047206A401C2062761CAAF10100F7
:100A70005FEA000A0AD100F059F8C0680168405CDA
:100A8000D4E901219047206A401C2062281EA5F16C
:100A90000105DCDC07E0D4E9012118F8010B9047DF
:100AA000206A401C2062381EA7F10107F3DC2046B3
:100AB000FFF732FC032011B041E6000001694A1C37
:100AC00002610878704700B58FB0CDE9013100218F
:100AD000059105497944CDE9031011466846FFF7B1
:100AE00095FC0FB000BD0000E5FFFFFF0A6802F8AB
:100AF000010B0A607047D1E900239A4202D2531CCD
:100B00000B60107070470000074B70B50D467B44BA
:100B1000FFF7D9FF0446284600F004F910B14FF062
:100B2000FF3070BD204670BD5F1C0000004870475C
:100B3000B400002030B5B0F10A024FEA900E71F116
:100B400000034EEA817EB0EB0E0061EB91014FEAAB
:100B5000101E4EEA017E10EB0E0041EB11114FEA20
:100B6000102E4EEA016E10EB0E0041EB11214FEA00
:100B7000104E4EEA014E10EB0E0041EB11414018B1
:100B800041F100014FEAD00040EA41704FEAD10143
:100B900010EB80054FEA810444EA907444EB0104B1
:100BA0006D1944EB0404521BA3414FF0000348BFEE
:100BB0000A3200D530BD401C41F1000130BD0000BB
:100BC0002DE9F0411F46044603260168072A01F477
:100BD000006004DB08B116A505E016A503E008B126
:100BE00015A500E015A521F010002060A069C01E29
:100BF000A0610FB1401EA0612046FFF777FB4FB107
:100C0000D4E9012138469047206A401C2062C01C6C
:100C1000206206E0206AFAE7D4E9012115F8010B09
:100C20009047761EF8D22046FFF776FBBDE8F081AC
:100C30004E414E006E616E00494E4600696E660080
:100C40002DE9F047814616468AB0354878440DC8EC
:100C50008DE80D0032487844801C03AC0DC884E850
:100C60000D0041F69B300844372190FBF1F290FBD8
:100C7000F1F5A5F1800501FB12041B3C02D564428D
:100C8000012000E00020DFF898A080460027FA4409
:100C9000AAF1BE0A0EE0E0070AD03246684607EB2A
:100CA000470101230AEB810100F043FB8DE80700B7
:100CB00064107F1C002CEED1194F7F44AE3F19E029
:100CC000E80715D007EB04100DF1180A90E80E00A4
:100CD0008AE80E00C068F04201D1981908903246A7
:100CE000012306A903A800F024FB03AB83E8070057
:100CF0006D10641C002DE3D14FF0010332466946AC
:100D0000B8F1000F03A802D000F0FEFA01E000F0F5
:100D100010FBC9E90001C9F808200AB0BDE8F08756
:100D200074290000007B00F0800070470048704785
:100D3000940000207546FFF7F9FFAE4605006946AE
:100D4000534620F00700854618B020B5FFF792FA09
:100D5000BDE820404FF000064FF000074FF00008BC
:100D60004FF0000B21F00701AC46ACE8C009ACE83D
:100D7000C009ACE8C009ACE8C0098D46704710B5A1
:100D80000446AFF300802046BDE81040FFF758BA94
:100D90004FF0013C50F8042B51F8043B9A4221D10A
:100DA000A2EB0C03934313EACC1317D150F8042B96
:100DB00051F8043B9A4215D1A2EB0C03934313EA7A
:100DC000CC130BD150F8042B51F8043B9A4209D1B3
:100DD000A2EB0C03934313EACC13DBD04FF00000DB
:100DE000704700BFD01A01BAB1FA81F101F01801C1
:100DF00022FA01F0CB40C1F12001DBB2C0B2C01A2F
:100E00002CFA01F3D11A914311EAC311E6D17047CC
:100E10005FEA400C08BF91F0000F4FEA8C234FEAC5
:100E2000C12243EA51514FEA1C5018BF00F5F0406F
:100E30004FEA300018BF41F000415FEA6C5C00F0FF
:100E40002980BCF1FF3F08BF40F080407047130C81
:100E500006BF12044FF0100C4FF0000C130E04BF2D
:100E600012020CF1080C130F04BF12010CF1040C58
:100E7000930F04BF92000CF1020CD30F04BF520079
:100E80000CF1010C11464FF00002A0F11F00A0EB85
:100E90000C00704711F0004F08BF704731F000415F
:100EA0003FF4D5AF0B0C06BF09044FF0100C4FF008
:100EB000000C0B0E04BF09020CF1080C0B0F04BF51
:100EC00009010CF1040C8B0F04BF89000CF1020C1A
:100ED000CB0F04BF49000CF1010CCCF12003A0EBB7
:100EE0000C0022FA03F302FA0CF241EA030100F1CA
:100EF0000100704720F07F4C80EA030023F07F4719
:100F0000ACEB070303F57C5300F0004003F1FF0353
:100F10002DE980494FEA154B09B44FEA144325EAFD
:100F20000B4E24EA03480FF2042606EB1327490868
:100F30003E785FEA320203FB0667C7F5000707FB4E
:100F400006F64FEA54374FEAD64606F1020607FB8B
:100F5000066CCCF1005C4FEA1C472CEA074C07FBFF
:100F600006F40CFB06F504EB15464FEA961634BF63
:100F700000204FF000404FEAD13706FB07FC4FEA54
:100F80001C4C0CFB0BF7D21B03FB0CF761EB0701AE
:100F90000CFB0EF7B0EB074072EB17420CFB08F7A7
:100FA00034BFA2EB0742B2EB074261EB17414FEAB5
:100FB0000C444FEA910706FB07FC4FEA1C4C0CFB64
:100FC0000BF7B0EBC74072EB573203FB0CF734BFA3
:100FD000A2EBC742B2EBC74261EB57310CFB0EF7F5
:100FE000B0EBC70072EB57720CFB08F734BFA2EBF3
:100FF000C702B2EBC70261EB5771039F4FEA8161F1
:1010000041EA921104EBCC044FEAD1374FEA8262F5
:1010100006FB07FC42EA90124FEA80604FEA1C4C44
:101020000CFB0BF7D21B03FB0CF761EB07010CFB6E
:101030000EF7B0EB074072EB17420CFB08F734BF1A
:10104000A2EB0742B2EB074261EB17414FEA8C5526
:101050004FEA910704EB9C2406FB07FC4FEA1C4C6B
:101060000CFB0BF7B0EBC74072EB573203FB0CF7EE
:1010700034BFA2EBC742B2EBC74261EB57310CFB66
:101080000EF7B0EBC70072EB57720CFB08F734BFDA
:10109000A2EBC702B2EBC70261EB577115EB4C250F
:1010A0004FEA816141EA92114FEA82624FEAD137F9
:1010B00042EA901206FB07FC44F100044FEA80600C
:1010C0004FEA1C4C0CFB0BF7D21B03FB0CF761EB3C
:1010D00007010CFB0EF7B0EB074072EB17420CFB5D
:1010E00008F734BFA2EB0742B2EB074261EB1741AE
:1010F00015EB1C154FEA813141EA92414FEA8232E9
:1011000042EA90424FEA80304FEA0C7644F1000404
:1011100048EA03434EEA0B484FF0000EB2EB080CCE
:1011200071EB030724BF624639464EEB0E0E4FF0BB
:10113000000B0018524149414BEB0B0BB2EB080C72
:1011400071EB03077BF1000B24BF624639464EEB7F
:101150000E0E4FF0000B0018524149414BEB0B0BA8
:10116000B2EB080C71EB03077BF1000B24BF624666
:1011700039464EEB0E0E51EA020718BF46F0010643
:1011800016EB0E7655F1000254F1000103D5BDE8CF
:101190008901BDE80088BDE88901BDE80048B619AD
:1011A000524141EB0101A3F10103704780807F7E32
:1011B0007D7C7B7A797877767675747372717170CD
:1011C0006F6E6E6D6C6C6B6A6A696868676666657F
:1011D0006464636362616160605F5F5E5E5D5D5C0D
:1011E0005C5B5B5A5A59595858575756565555557E
:1011F0005454535352525251515050504F4F4F4EDE
:101200004E4D4D4D4C4C4C4B4B4B4A4A4A4949492B
:10121000484848474747474646464545454444446D
:10122000444343434342424242414141002B9C4696
:1012300030D477002BD01CB54FEA370703B44FF0FA
:1012400010004FF01001BAF1000F06D0BCF1000FF2
:10125000DCBF40F0080040F008014FF000000FBC78
:10126000BDE810400BF1010BBBF1010F08BF5FEAB5
:10127000170722BF12F1010211F101014FF00041E5
:1012800043F1000300F0004043EA00007047F9D347
:101290005708D0E746EA064613F1400F4FEA1646D4
:1012A0001FDD13F1200FDFBF16430A460021203354
:1012B0005B42BED0C3F1200746EA064602FA07F7B2
:1012C0004FEA164646EA0706C3F1200722FA03F260
:1012D00001FA07F721FA03F14FF0000342EA07028F
:1012E000A7E746EA020646EA06464FEA164646EAF7
:1012F0000106BCBF46EA0646360C4FF000034FF02D
:1013000000024FF0000194E72DE9804C9A46934685
:1013100070B491E8380007C831EA400C48BF34EA9D
:10132000430C03D5FFF7E6FDFFF780FFF0BCBDE8F7
:10133000008C2DE9804C9A46934670B491E83800B1
:1013400007C810F0804F08BF13F0804F03D100F0A2
:1013500005F8FFF76BFFF0BCBDE8008C20F07F477D
:1013600080EA030023F07F4C07EB0C03A3F57C53CA
:1013700000F00040A3F1FE0392F0000F00F0B380F4
:1013800095F0000F00F077802DE901494FEA1140F8
:101390004FEA144621EA004800FB06FC24EA06470F
:1013A00008FB06F607FB08F800FB07F718EB0648F2
:1013B0004CEB164C4FEA124B18EB07484FEA154618
:1013C0004CEB174022EA0B4E0BFB06FC25EA0647C6
:1013D0000EFB06F607FB0EFE0BFB07F71EEB064E99
:1013E0004CEB164C4FF000061EEB074E4CEB174B28
:1013F00018EB0B0840F1000018EB0E0B58EB00083F
:1014000040F100008F1A4FF000013CBFC943661B3A
:1014100014BFB5EB040C00213CBFC943F61B4FEAD7
:1014200017444EEA8E0E27EA04454FEA1C4704FB98
:1014300007622CEA074C05FB07F70CFB05F604FBDB
:101440000CFC16EB074642EB174216EB0C4642EB40
:101450001C421BEB060658EB0202414146EA9E067F
:1014600001D5BDE80189B619524141EB0101A3F153
:101470000103BDE801894FEA14454FEA114724EA08
:10148000054621EA074C05FB07F406FB07F70CFBB2
:1014900006F105FB0CFC11EB074144EB17444FEA46
:1014A000124711EB0C4144EB1C4422EA074C05FBAC
:1014B00007F206FB07F70CFB06F605FB0CFC16EB28
:1014C000074642EB174216EB0C4642EB1C456A18E6
:1014D00054F1000148BF7047B619524141EB010178
:1014E000A3F10103704795F0000F37D04FEA114286
:1014F0004FEA144721EA024624EA074C02FB07F1AF
:1015000006FB07F70CFB06F402FB0CFC14EB07448C
:1015100041EB17414FEA154714EB0C4441EB1C41DA
:1015200025EA074C02FB07F506FB07F70CFB06F65E
:1015300002FB0CFC16EB074645EB174516EB0C4679
:1015400045EB1C42121951F1000148BF7047B61912
:10155000524141EB0101A3F1010370474FEA1445E9
:101560004FEA114724EA054621EA074C05FB07F13B
:1015700006FB07F70CFB06F24FF0000605FB0CFC20
:1015800012EB074241EB174112EB0C4251EB1C41AD
:1015900048BF7047921841EB0101A3F10103704766
:1015A000FEE7000070B50546012186B0084600F050
:1015B000B9FE0121102000F0CDFE1C4E07220921AA
:1015C000304600F024F907220A21304600F01FF9C6
:1015D0004FF4C060049002208DF8150000248DF8AF
:1015E000164001218DF817108DF8140004A930461B
:1015F00000F0BCF8ADF80440ADF80640ADF8084086
:10160000ADF80C400C200A4CADF80A000095694674
:10161000204601F01FF80121204601F00AF8402180
:10162000204601F003F806B070BD00000000024043
:101630000010014070B5104C0025E56100F0DEFEA1
:1016400000F000F9E1696D1C0844EDB2E0610C2D79
:10165000F4D30C2190FBF1F0206000F0CFFE00F0FD
:10166000F1F82060E168401A20622169014461605C
:1016700061690844A06070BD040000207047401EEE
:10168000FDD270478000A0F1C0400029016802D05F
:1016900041F0010101E0024A114001607047000081
:1016A000FEFF0F0010B5D0E901121143D0E903236A
:1016B0001A4311434269114382691143C2691143BC
:1016C000026A1143426A1143826A1143C26A11439A
:1016D000026B114302689200A2F1C042116081685E
:1016E000082907D101688900A1F1C0410A6842F0C8
:1016F00040020A60416BD1E9002342EA03128B6881
:101700008C891B0243EA04431A430B8A42EA0352C0
:101710000B7D896942EA03620A4301688900A1F1ED
:10172000C0414A60C16AB1F5804F08D000686FF0CF
:1017300070418000A0F1C040C0F8041110BD816B61
:10174000D1E9002342EA03128B680C8A1B0243EAA8
:1017500004531A430B7D896942EA036200680A4315
:101760008000A0F1C040C0F8042110BDF0B50023F6
:10177000012403270D6804FA03F21540954242D173
:10178000D0F800C05E0007FA06F52CEA050CC0F898
:1017900000C091F804C0D0F800E00CFA06FC4CEA56
:1017A0000E0CC0F800C091F804C0BCF1010F02D0CB
:1017B000BCF1020F1FD1D0F808C02CEA050CC0F80C
:1017C00008C091F805C0D0F808E00CFA06FC4CEA15
:1017D0000E0CC0F808C0D0F804C02CEA020CC0F807
:1017E00004C0426891F806C00CFA03FC1FFA8CFC96
:1017F00042EA0C024260C268AA43C260CA79C56864
:10180000B2402A43C2605B1C102BB3D3F0BD4B0720
:10181000DB0E9A40C90810B500EB8100016A0F2465
:101820009C40A1430162016A1143016210BD02465E
:10183000002012690A4200D001207047418370479E
:101840000183704730B5104C0146054602460B2314
:10185000C4F8000054F82300904201D9024602E087
:10186000A84200D20546014404EB830050F8040C62
:1018700044F823005B1E13F0FF03EBD10A20891A02
:10188000491BB1FBF0F030BD640000200549096838
:10189000054A32F81000014201D0012070470020B3
:1018A0007047000010040240982A00080A214FF4F3
:1018B000784302A2142000F0E9BC00004861726481
:1018C0004661756C7400000010B5224C207878B128
:1018D0000020FFF7DBFFC0B10120FFF7D7FFA0B169
:1018E0000220FFF7D3FF80B90320FFF7CFFF60B1DD
:1018F0000020FFF7CBFF50B30120FFF7C7FF30B345
:101900000220FFF7C3FFE0B121E01348FFF7B7FE65
:1019100000202070FFF7BAFF00284FF001000FD021
:10192000FFF7B4FF00284FF0020009D0FFF7AEFF29
:1019300001284FF0030003D0FFF7A8FF38B90420B7
:1019400010BD0320FFF7A2FF08B101202070002086
:1019500010BD000044000020FFFF0F001CB5012156
:10196000022000F0DFFC40F20740009000208DF8DC
:1019700004008DF8070069460148FFF7F7FE1CBD1B
:10198000000402402DE9FF4F203A8B46054682466F
:1019900002F0FF090024DFF868802BE00C2905D055
:1019A000184A02EB091100260F5D16E0164A09EBF2
:1019B000490102EB8101F6E7F90701D0039A03E040
:1019C000417829B1B8F802205946284600F050FC69
:1019D0006D1C7F08761CADB2F6B298F80010404638
:1019E000B6EB510FE8D30BF10100641C55461FFA0A
:1019F00080FBE4B298F800108C42CFD3BDE8FF8F93
:101A00004C0000201C2F0008A82A0008014A507032
:101A1000518070474C00002030B50546002440F24C
:101A20003F11204600F00EF84FF0C0412220088000
:101A300003484FF496310580641C8C42FBD330BDC3
:101A4000000002600B4600B50146202000F030FC8B
:101A5000194621205DF804EB00F02ABC092820D2A9
:101A6000DFE800F01F05080B0E1114171A004FF4E1
:101A7000805113E041F2080110E041F210010DE045
:101A800041F218010AE04FF4815107E041F22801C8
:101A900004E041F2300101E041F23801032000F09E
:101AA00007BC704700B5012197B0084600F046FC1E
:101AB00005200F9000200921CDE91001129010217E
:101AC000CDE90201149015901390009001900490BC
:101AD0000590069009020790CDE908010A900B9045
:101AE0000C900FA80D900E906846FFF7DBFD0121CA
:101AF0000020FFF7C7FD17B000BD00002DE9F05F23
:101B000000F01AFBFFF7CEFF052000F01FFE0020BB
:101B100000F0A6FBA0F513414FF480734FF4E0668C
:101B200041F2300A40F2022741F2B07540F2371B11
:101B30004FF4E85840F2023941F2180420397CD0C1
:101B4000A0F51341253979D045F20844A04276D159
:101B50000021084600F0ACFB1946012000F0A8FB6C
:101B60003146022000F0A4FB5146032000F0A0FB08
:101B70000021042000F09CFB791D082000F098FB58
:101B80000021092000F094FB00210A2000F090FBC6
:101B900000210C2000F08CFB00210D2000F088FBC0
:101BA00000210F2000F084FB7910072000F080FB5B
:101BB00041F2B021102000F07BFB0721112000F042
:101BC00077FB0121172000F073FB642000F0BEFDBD
:101BD00040F2BB11122000F06BFBB100132000F0AB
:101BE00067FB192000F0B2FD1921292000F060FBED
:101BF000192000F0ABFD4FF48171302000F058FB4C
:101C0000192000F0A3FD40F62141312000F050FBE7
:101C100040F62231322000F04BFB42F210613320BB
:101C200000F046FB41F60B61342000F041FB40F62A
:101C30000421352000F03CFB02E0A7E090E194E0B5
:101C400041F20171362000F033FB40F2176137207A
:101C500000F02EFB40F20531382000F029FB40F661
:101C60000521392000F024FB40F604413A2000F021
:101C70001FFB4FF440613B2000F01AFB0C213C207D
:101C800000F016FB40F20C513D2000F011FBB91C96
:101C90003E2000F00DFB79003F2000F009FB002101
:101CA000502000F005FBEF21512000F001FB002146
:101CB000522000F0FDFA40F23F11532000F0F8FAF4
:101CC0004FF41C51602000F0F3FA0121612000F074
:101CD000EFFA00216A2000F0EBFA0021802000F0EA
:101CE000E7FA0021812000F0E3FA0021822000F0D1
:101CF000DFFA0021832000F0DBFA0021842000F0CD
:101D0000D7FA0021852000F0D3FA1021902000F0AE
:101D1000CFFA0021922000F0CBFA40F20311932079
:101D200000F0C6FA4FF40471952000F0C1FA0021CA
:101D3000972000F0BDFA0021982000F0B9FA214662
:101D4000F02000F0B5FA0521F32000F0B1FA1F21D0
:101D5000F42000F0ADFA00215FF0F00000F0A8FAE6
:101D600040F27311072000F0A3FA4FF6FF742046EB
:101D7000FFF752FEEF49102008700720FFF76EFEB4
:101D80002146BDE8F05F0120FFF740BE4FF400415F
:101D9000E52000F08DFA0121002000F089FA1946B3
:101DA000012000F085FA3146022000F081FA514608
:101DB000032000F07DFA0021042000F079FA394672
:101DC000082000F075FA0021092000F071FA0021C6
:101DD0000A2000F06DFA00210B2000F069FA0021C2
:101DE0000C2000F065FA00210F2000F061FA0021BC
:101DF000102000F05DFA0021112000F059FA0021B6
:101E0000122000F055FA0021132000F051FA14209E
:101E100000F09CFC2946102000F04AFA5946112097
:101E200000F046FA052000F091FC40F23911122032
:101E300000F03EFA052000F089FC4146132000F036
:101E400037FA1321292000F033FA052000F07EFC38
:101E50000021202000F02CFA0021212000F028FA97
:101E60000621302000F024FA40F20111312000F068
:101E70001FFA0321322000F01BFA4FF48371352042
:101E800000F016FA40F60231362000F011FA494609
:101E9000372000F00DFA40F20771382000F008FA00
:101EA0000721392000F004FA4FF4C0613C2000F013
:101EB000FFF940F20B213D2000F0FAF900215020FB
:101EC00000F0F6F9EF21512000F0F2F90021522044
:101ED00000F0EEF940F23F11532000F0E9F94FF421
:101EE0001C51602000F0E4F90121612000F0E0F9CC
:101EF00000216A2000F0DCF90021802000F0D8F9F0
:101F00000021812000F0D4F90021822000F0D0F9D6
:101F10000021832000F0CCF90021842000F0C8F9D2
:101F20000021852000F0C4F91021902000F0C0F9B4
:101F30000021922000F0BCF90321932000F0B8F9B1
:101F40004FF48871952000F0B3F90021972000F03C
:101F5000AFF90021982000F0ABF921460320FDE6FF
:101F60000121002000F0A4F91946012000F0A0F999
:101F70003146022000F09CF92146032000F098F938
:101F80000021042000F094F93946082000F090F96F
:101F90000021092000F08CF900210A2000F088F9C6
:101FA00000210C2000F084F900210D2000F080F9C0
:101FB00000210F2000F07CF90021102000F078F9BA
:101FC0000021112000F074F90021122000F070F9B6
:101FD0000021132000F06CF9142000F0B7FB294613
:101FE000102000F065F95946112000F061F9052034
:101FF00000F0ACFB40F23911122000F059F9052035
:1020000000F0A4FB4146132000F052F913212920CF
:1020100000F04EF9052000F099FB0021202000F08F
:1020200047F90021212000F043F90721302000F07A
:102030003FF94946312000F03BF940F205131946BB
:10204000322000F035F940F206252946352000F00F
:102050002FF940F608063146362000F029F92946C6
:10206000372000F025F940F20451382000F020F923
:102070000721392000F01CF919463C2000F018F91E
:1020800031463D2000F014F90021502000F010F9F5
:10209000EF21512000F00CF90021522000F008F946
:1020A00040F23F11532000F003F94FF42741602024
:1020B00000F0FEF80121612000F0FAF800216A200A
:1020C00000F0F6F80021802000F0F2F800218120D5
:1020D00000F0EEF80021822000F0EAF800218320D1
:1020E00000F0E6F80021842000F0E2F800218520CD
:1020F00000F0DEF81021902000F0DAF800219220A4
:1021000000F0D6F80321932000F0D2F84FF4887144
:10211000952000F0CDF80021972000F0C9F80021AB
:10212000982000F0C5F82146032000F0C1F840F2E5
:10213000331117E64C0000207CB50121182000F077
:10214000F1F84CF23370009002208DF804008DF805
:10215000050000208DF806003F4C8DF80700694609
:102160002046FFF703FB0C2200212046FFF74FFB20
:102170000C2201212046FFF74AFB0C2204212046B5
:10218000FFF745FB0C2205212046FFF740FB0C2200
:1021900008212046FFF73BFB0C2209212046FFF7D0
:1021A00036FB0C220A212046FFF731FB0C220E21C0
:1021B0002046FFF72CFB0C220F212046FFF727FBC0
:1021C0004FF68070254D009069462846FFF7CEFAFD
:1021D0000C2207212846FFF71AFB0C22082128466B
:1021E000FFF715FB0C2209212846FFF710FB0C22F4
:1021F0000A212846FFF70BFB0C220B212846FFF78C
:1022000006FB0C2211462846FFF701FB0C220D218C
:102210002846FFF7FCFA0C220E212846FFF7F7FAB2
:102220000C220F212846FFF7F2FAE01400906946CD
:102230002046FFF79BFA0C220B212046FFF7E7FA16
:102240008020009069462046FFF790FA0C22072173
:102250002046FFF7DCFA7CBD000C02400010024073
:102260004FF0C041088001480088704700000260BC
:1022700010B51446FFF7E6FB4FF0C041222008805E
:102280000148048010BD000000000260F0B51E4649
:1022900014460F46054607E0334639462846FFF701
:1022A00071FB0835ADB2641C2278002AF4D1F0BD70
:1022B0004FF0C0421080014801807047000002606A
:1022C0007CB50121084600F02DF80121042000F022
:1022D00029F801258DF80450002408208DF80640C7
:1022E000032600908DF805608DF80740694609487F
:1022F000FFF73CFA8DF8045042F20C008DF80640CE
:1023000000908DF805608DF8074069460248FFF798
:102310002DFA7CBD0000024000080240FEE7704735
:1023200070470000044A0029116801D0014300E011
:10233000814311607047000030380240044A002990
:10234000116801D0014300E0814311607047000033
:1023500038380240044A0029116801D0014300E0E6
:1023600081431160704700004438024070B5204A34
:102370001168204C11F00C0104D06610042903D020
:10238000082903D004601BE0066019E01849091F02
:102390000B68C3F380550B6803F03F0315B1B6FB20
:1023A000F3F301E0B4FBF3F30C680968C4F3881499
:1023B0006343C1F30141491C4900B3FBF1F10160E2
:1023C00011680F2303EA11110B4B5C5C0168E140BB
:1023D00041601468072505EA94241C5D21FA04F481
:1023E0008460126805EA52329A5CD140C16070BDC7
:1023F000083802400024F4005400002070B5164E46
:10240000002440213046FFF719FA80213046FFF7BB
:102410000EFA0028F9D1002540213046FFF710FAC6
:10242000640040213046FFF709FA80213046FFF76B
:10243000FEF908B144F001046D1CEDB2182DEBD388
:1024400040213046FFF7FCF984F400044021304677
:10245000FFF7F4F9204670BD000802407047000005
:102460007CB501210420FFF75DFF8020002400904F
:102470008DF8044003208DF80500094D8DF80740C4
:1024800069462846FFF772F94020009001208DF838
:1024900004008DF8074069462846FFF767F97CBDC0
:1024A000000802400CB500223148019200920168F8
:1024B00041F4803101604FF4A043016801F4003120
:1024C00000910199491C0191009911B90199994212
:1024D000F3D101688B03274947D501220092254A91
:1024E0003832136843F080531360234A136843F46F
:1024F000404313600A680A600A6842F400420A60B6
:102500000A6842F4A0520A601C4A1388528843EABF
:1025100082120B1F42F0E8621A60026842F0807279
:10252000026002689201FCD5154B40F205621A6008
:102530000A6822F003020A600A6842F002020A6096
:102540000A68C2F38102022AFAD10A6822F4000260
:102550000A60084A0B497C321160016841F08061D1
:10256000016001680901FCD50CBD0092EDE7000097
:102570000038024008380240007000402C00002063
:10258000003C024080400030401EB0F1807F01D30B
:10259000012070474FF0E0214861054AF02082F8A1
:1025A000140D00208861072008610020704700009A
:1025B0000FE000E00448016809B1491E01600348CA
:1025C00001680A31016070474800002000000020C7
:1025D000124810B5016841F47001016010480168AB
:1025E00041F0010101600E4A0021083211600268C9
:1025F0000C4B1A400260031D0B4A1A60026822F459
:102600008022026006480C300160FFF74BFF03494F
:102610004FF000608039086010BD000088ED00E0D8
:1026200000380240FFFFF6FE10300024C94301804D
:1026300070470029818902D041F4005101E021F462
:102640000051818170470246002012880A4200D062
:10265000012070477FB50446008A0D4620F44051A2
:10266000E88808432082A08941F20C618843A98848
:102670002A8911436A8902431143A181A08A20F467
:102680004071A8890843A0826846FFF76FFE1A4888
:10269000844202D01948844201D1039800E0029894
:1026A000A189090400EBC00101EB0010296801D5E4
:1026B000490000E08900B0FBF1F26420B2FBF0F1C8
:1026C00009010B096FF018056B4302EB8302A38924
:1026D0001D044FF0320306D503EBC202B2FBF0F04B
:1026E00000F0070005E003EB0212B2FBF0F000F08F
:1026F0000F00084320817FBD0010014000140140FD
:10270000C1F3080181807047FEE703B401984100DE
:10271000009850EAC12018BF04204A0D18BF40F0AD
:10272000010040F2FF72B2EB515F08BF40F00200BF
:10273000012808BF052002B0704730380A2801D2AE
:1027400001207047002070477047000010B5064C0C
:1027500020600648FFF718FF20680028FCD14FF0E2
:10276000E021086110BD00004800002040900200F8
:1027700070B5074D0446C1B22846FFF7C1FF40219E
:102780002846FFF760FF0028F9D0204670BD000002
:1027900000100140C2B04FF4807102A8FDF7FAFEAC
:1027A000FFF7DCF8FFF78CFDFFF75AFEFFF7A6F9FD
:1027B000FFF724FEFEF73EFF4FF4E130FEF7F2FE96
:1027C0001F2341A20A214020FFF760FD414C4FF436
:1027D000784700BFFFF778F80646FFF70FFE804600
:1027E000FFF730F80546A061D4E90010CDE90001FB
:1027F0002A46414638A0A368FDF752FD012E28D095
:10280000022E28D0032E31D0042E3AD039A2FF2137
:1028100002A8A369FDF750FD1F2302AA5A21182020
:10282000FFF734FDD4E90110884237D02368A2694C
:10283000D21A00EE102A401AF8EEC00A00EE100A72
:10284000B8EEC01A80EE810ADFED2F0A20EE200AD2
:1028500026E0E56018E02B462CA2FF2102A8656067
:10286000FDF72AFD3B4602AA362129E02B462CA281
:10287000FF2102A8A560FDF71FFD3B4602AA4821E3
:102880001EE04046FEF7D6FE2AA2FF2102A82368DA
:10289000FDF712FD3B4602AA242111E09FED2A0A12
:1028A00084ED090A10EE100A00F07AF8CDE9000173
:1028B00026A2FF2102A8FDF7FFFC1F2302AA6C211C
:1028C0001820FFF7E3FC85E753544D333220536360
:1028D000616C650004000020253038582C25303804
:1028E000582C253038582C253038582C253038585D
:1028F0000A00000064617461203D202538642020B6
:1029000020202020202000000000C8423130306705
:10291000203D202538642020202020202020000079
:1029200032303067203D20253864202020202020B0
:102930002020000030303067203D202538642020E2
:10294000202020202020000000000000776569671B
:102950006874203D2025342E346C666720202020AA
:10296000202020200000000010B500290AD008789F
:10297000002807D005487844FEF70AFA002801D05D
:10298000002010BD0248784410BD0000860C0000F5
:102990007E0C00000808A0F500114FEA31017047D5
:1029A00043004FEAD30C4FEA3C0C43401FBF4007A3
:1029B0000CF1605113F0FE4F70471CF0006F03D113
:1029C00000200CF0004170470CF0004343EA5070C7
:1029D00010B540EACC0000F00EF800BF00000092F5
:1029E0004FEA0001FFF7D6BF4FF000414FF0000063
:1029F000A1F5002170470EF1020E2EF0030E5EF8D5
:102A0000044B244204D44FEA4102B2F17F4F11D863
:102A10004FEA4003B3F17F4F0CD80ED14FEAD07C80
:102A2000B2F17F4F0CEB4C0C0CF1020C08BF4CEBDD
:102A3000D17C04E04FF0080C01E04FEAD17C0CEBB4
:102A40004C0324FA03F404F00704B4F1040C06D296
:102A50000EEB840CBDE810404CF0010C6047DFE841
:102A60000CF0070802024FF00040A0F5800010BDF6
:102A70000846420018BFD2F1807288BF00F00040C3
:102A800010BD4FF04070E1EE100A7047FDF7DFBE59
:102A90000001020A060708280100020004000004E1
:102AA000010002000400000400000000000000001B
:102AB00000000000000004040404040400040000FA
:102AC00000140A0A000000000000000000001414B6
:102AD0003F140A3F0A0A000000041E1505060C14E4
:102AE000150F0400000012150D0A142C2A12000004
:102AF0000000040A0A1E1515093600000002020132
:102B0000000000000000000000201008080808086D
:102B10000810200000020408080808080804020041
:102B200000000004150E0E1504000000000004044F
:102B3000041F040404000000000000000000000066
:102B40000002020100000000001F00000000000061
:102B50000000000000000000000200000010080853
:102B6000080404020202010000000E1111111111EB
:102B7000110E00000000040604040404040E00000A
:102B800000000E1111080402011F000000000E11C8
:102B9000100C1010110E00000000080C0A0A091E8B
:102BA0000818000000001F01010F1010110E000096
:102BB00000000E09010F1111110E000000001F0985
:102BC000080404040404000000000E11110E111189
:102BD000110E000000000E1111111E10120E000047
:102BE00000000000040000000004000000000000DD
:102BF000000400000004040000201008040204087F
:102C000010200000000000001F00001F0000000056
:102C100000020408102010080402000000000E1139
:102C2000110804040004000000000E111915151D00
:102C3000011E0000000004040C0A0A1E12330000EA
:102C400000000F12120E1212120F000000001E11CF
:102C500001010101110E000000000F1212121212E8
:102C6000120F000000001F120A0E0A02121F0000BD
:102C700000001F120A0E0A020207000000001C12C8
:102C800001013911120C000000003312121E121241
:102C90001233000000001F0404040404041F000099
:102CA00000003E080808080808090700000037125D
:102CB0000A060A0A12370000000007020202020296
:102CC000223F000000001B1B1B1B151515150000E3
:102CD00000003B1216161A1A1217000000000E11FF
:102CE00011111111110E000000000F12120E02023C
:102CF0000207000000000E1111111117190E180023
:102D000000000F12120E0A121237000000001E11EE
:102D100001060810110F000000001F150404040430
:102D2000040E00000000331212121212120C0000E6
:102D300000003312120A0A0C0404000000001515EA
:102D4000150E0A0A0A0A000000001B0A0A04040AF7
:102D50000A1B000000001B0A0A040404040E000001
:102D600000001F0908040402121F0000001C0404D4
:102D70000404040404041C00000202020404080801
:102D800008100000000E08080808080808080E00CF
:102D900000040A0000000000000000000000000025
:102DA000000000000000003F0004000000000000E0
:102DB0000000000000000000000C121C123C00008B
:102DC00000000302020E1212120E000000000000AA
:102DD000001C1202021C000000001810101C12122D
:102DE000123C000000000000000C121E021C00003B
:102DF00000003804041E0404041E0000000000004B
:102E0000003C120C021E221C00000302020E1212D1
:102E1000123700000000040000060404040E000045
:102E200000000800000C080808080807000003025A
:102E3000023A0A0E123700000000070404040404DA
:102E4000041F000000000000000F151515150000FC
:102E500000000000000F12121237000000000000F6
:102E6000000C1212120C000000000000000F1212E1
:102E7000120E020700000000001C1212121C103873
:102E800000000000001B0602020700000000000016
:102E9000001E020C101E000000000004040E0404BA
:102EA0000418000000000000001B1212123C000079
:102EB000000000000037120A0C04000000000000AF
:102EC0000015150E0A0A000000000000001B0A048D
:102ED0000A1B0000000000000037120A0C04040363
:102EE00000000000001E0804041E0000001808086E
:102EF000080408080808180008080808080808084E
:102F00000808080800060404040804040404060071
:102F10000225180000000000000000000000000072
:102F20000000000000000000000000000000000899
:102F300008080808080800001818000000486C2459
:102F4000120000000000000000000000000000244B
:102F500024247F1212127F12121200000000081C9B
:102F60002A2A0A0C1828282A2A1C080800000022ED
:102F7000251515152A585454542200000000000C41
:102F80001212120A76252911916E0000000606041D
:102F900003000000000000000000000000402010BE
:102FA0001008080808080810102040000002040853
:102FB0000810101010101008080402000000000093
:102FC00008086B1C1C6B08080000000000000000D3
:102FD000080808087F080808080000000000000032
:102FE00000000000000000000606040300000000CE
:102FF00000000000FE0000000000000000000000D3
:1030000000000000000000000606000000008040F4
:1030100040202010100808040402020000000018DC
:10302000244242424242424224180000000000086A
:103030000E08080808080808083E00000000003CC8
:103040004242422020100804427E00000000003C62
:103050004242201820404042221C00000000002074
:103060003028242422227E20207800000000007EC8
:103070000202021A26404042221C000000000038D2
:103080002402021A26424242241800000000007E58
:103090002222101008080808080800000000003C60
:1030A0004242422418244242423C000000000018E0
:1030B0002442424264584040241C000000000000AA
:1030C00000001818000000001818000000000000A0
:1030D0000000000800000000000808040000004094
:1030E0002010080402040810204000000000000026
:1030F00000007F0000007F000000000000000002D0
:103100000408102040201008040200000000003CC9
:103110004242464020101000181800000000001C19
:10312000225A555555552D42221C0000000000081A
:1031300008181414243C224242E700000000001F3B
:103140002222221E22424242221F00000000007C56
:103150004242010101010142221C00000000001F47
:103160002242424242424242221F00000000003FEF
:103170004212121E12120242423F00000000003FA3
:103180004212121E12120202020700000000003C4E
:103190002222010101712122221C0000000000E70F
:1031A000424242427E42424242E700000000003E6C
:1031B0000808080808080808083E00000000007C0D
:1031C00010101010101010101010110F00000077C8
:1031D00022120A0E0A1212222277000000000007B3
:1031E0000202020202020202427F00000000007797
:1031F000363636362A2A2A2A2A6B0000000000E3D7
:1032000046464A4A52525262624700000000001C81
:103210002241414141414141221C00000000003F48
:10322000424242423E020202020700000000001C2D
:103230002241414141414D53321C60000000003F9A
:103240004242423E1212222242C700000000007C8D
:103250004242020418204042423E00000000007F2B
:103260004908080808080808081C0000000000E7D2
:103270004242424242424242423C0000000000E7D9
:103280004242222424141418080800000000006B95
:10329000494949495555362222220000000000E7DD
:1032A000422424181818242442E700000000007764
:1032B0002222141408080808081C00000000007EE0
:1032C0002120101008040442423F00000078080842
:1032D0000808080808080808080878000000020222
:1032E000040408080810102020204040001E101080
:1032F000101010101010101010101E000038440094
:1033000000000000000000000000000000000000BD
:103310000000000000000000000000FF00060800A0
:10332000000000000000000000000000000000009D
:103330000000003C4278444242FC000000000003D0
:103340000202021A26424242261A00000000000031
:10335000000000384402020244380000000000600F
:10336000404040784442424264D8000000000000DF
:103370000000003C427E0202423C0000000000F0DF
:103380008808087E08080808083E000000000000C1
:103390000000007C22221C023C42423C0000000350
:1033A0000202023A4642424242E700000000000C9C
:1033B0000C00000E08080808083E0000000000305D
:1033C00030000038202020202020221E0000000392
:1033D00002020272120A1612227700000000000E8A
:1033E0000808080808080808083E00000000000057
:1033F0000000007F9292929292B7000000000000BD
:103400000000003B4642424242E70000000000004C
:103410000000003C42424242423C000000000000EA
:103420000000001B26424242221E0207000000004C
:103430000000007844424242447840E0000000002E
:10344000000000774C040404041F0000000000008A
:103450000000007C42023C40423E000000000000B0
:103460000008083E080808080830000000000000B6
:10347000000000634242424262DC000000000000A3
:10348000000000E7422424140808000000000000A7
:10349000000000EB494955552222000000000000C1
:1034A0000000007624181818246E000000000000A8
:1034B000000000E742242414180808070000000058
:1034C0000000007E22100808447E000000C020207A
:1034D00020202010202020202020C00010101010BC
:1034E0001010101010101010101010100006080806
:1034F0000808081008080808080806000C32C2006E
:1035000000000000000000000000000030313233F5
:103510003435363738394142434445464030580007
:103520003031323334353637383961626364656639
:103530004030780004000008000000000000000295
:10354000000100001000000002400000000000A088
:103550000000000005400000000000C8000000005E
:103560000C4000000000409C0000000019400000DA
:103570000020BCBE0000000034400000BFC91B8E0C
:1035800000000004B5400000504BCFD06607E2CFEA
:10359000010000006C4100003E8251AADFEEA7341A
:1035A00001000000D9420000DCB5A0E23A301F97CC
:1035B000FFFFFFFFB4450000FD25A0C8E9A3C14FF0
:1035C000FFFFFFFFFF3F0000000000800000000041
:1035D000FF3F0000000000800000000018360008D7
:1035E0000000002064000000C40100087C360008D0
:1035F0006400002094060000E00100081C000000A8
:1036000043000000F8FFFFFF0C0000000E00000068
:103610000F0000002E00000000000000000000006D
:10362000000000000000000058628600986F8900CA
:10363000D87C8C00000000000000000000000000AA
:103640000000000008005001007A030A000000009A
:103650000000000001020304060708090100000041
:10366000000000000000000000000000000000005A
:0C3670000102030401020304060708091C
:040000050800018965
:00000001FF
